:100000000C942A000C943F000C943F000C943F0089
:100010000C943F000C943F000C943F000C943F0064
:100020000C943F000C943F000C943F000C943F0054
:100030000C943F000C943F000C943F000C943F0044
:100040000C943F000C943F000C943F000C943F0034
:100050000C943F0011241FBECFE5D8E0DEBFCDBF1A
:1000600011E0A0E6B0E0E4EAF4E402C005900D92ED
:10007000A039B107D9F70E94411F0C9450220C946B
:100080000000EF92FF920F931F937B018C0120E001
:1000900030E040E05FE40E941D0488238CF0C8013A
:1000A000B70120E030E040E05FE40E94B9010E9427
:1000B000DB049B01AC01205030404040504806C05A
:1000C000C801B7010E94DB049B01AC01B901CA0160
:1000D0001F910F91FF90EF900895A0E0B0E0E3E74B
:1000E000F0E00C941922DC012B01FA019C91923072
:1000F00008F439C1EB018881823008F433C19430AF
:1001000069F4843009F02FC111969C91119789816F
:10011000981709F428C1A7E7B0E025C1843009F495
:1001200021C18230A9F4923009F01DC19A01AD01BC
:1001300088E0EA010990AE01E90109929E0181502F
:10014000C1F7E201898111969C918923818308C1BD
:10015000923009F407C112962D903C901397EB0151
:100160008A819B811496AD90BD90CD90DC901797BD
:10017000EC80FD800E811F819101281B390BB90194
:1001800037FF04C066277727621B730B6032710547
:100190000CF061C0121613066CF537014801062EEB
:1001A00004C096948794779467940A94D2F721E0D8
:1001B00030E040E050E004C0220F331F441F551FC1
:1001C0006A95D2F721503040404050402E213F21C7
:1001D00040235123211531054105510521F021E02E
:1001E00030E040E050E079018A01E628F72808294C
:1001F00019293CC0232BD1F1260E371E35014601AB
:10020000062E04C096948794779467940A94D2F744
:1002100021E030E040E050E004C0220F331F441FD3
:10022000551F6A95D2F721503040404050402A2156
:100230003B214C215D21211531054105510521F05E
:1002400021E030E040E050E059016A01A628B728DB
:10025000C828D9280BC0821593052CF01C01AA24AC
:10026000BB24650103C0EE24FF24870111969C91F5
:10027000D20111968C91981709F445C0992339F051
:10028000A80197012A193B094C095D0906C0A6017E
:1002900095012E193F09400B510B57FD08C01182E3
:1002A0003382228224833583468357831DC081E0B5
:1002B00081833382228288279927DC01821B930B5A
:1002C000A40BB50B84839583A683B7830DC0220F3F
:1002D000331F441F551F24833583468357838281F0
:1002E000938101979383828324813581468157814D
:1002F000DA01C9010197A109B1098F5F9F4FAF4F83
:10030000BF4328F30BC0918333822282EA0CFB1C8B
:100310000C1D1D1DE482F5820683178383E0808314
:10032000248135814681578157FF1AC0C901AA2708
:1003300097FDA095BA2F81709070A070B0705695FF
:10034000479537952795822B932BA42BB52B848328
:100350009583A683B7838281938101969383828359
:10036000DF0101C0D201CD01CDB7DEB7E2E10C94CF
:100370003522A0E2B0E0EFEBF1E00C942522698396
:100380007A838B839C832D833E834F835887E9E058
:10039000EE2EF12CEC0EFD1ECE010196B7010E944F
:1003A00053068E010F5E1F4FCE010596B8010E94C5
:1003B00053068A8991E089278A8BC701B801AE016B
:1003C000475E5F4F0E946D000E947E05A096E6E0AA
:1003D0000C944122A0E2B0E0E0EFF1E00C94252281
:1003E00069837A838B839C832D833E834F835887D5
:1003F000F9E0EF2EF12CEC0EFD1ECE010196B701B7
:100400000E9453068E010F5E1F4FCE010596B80164
:100410000E945306C701B801AE01475E5F4F0E94BC
:100420006D000E947E05A096E6E00C944122A0E2B9
:10043000B0E0EDE1F2E00C94192269837A838B83BA
:100440009C832D833E834F835887CE010196BE0146
:10045000675F7F4F0E945306CE010596BE016F5E17
:100460007F4F0E9453069985923088F089898230A7
:10047000C8F0943019F4823051F404C0843029F467
:10048000923081F487E790E0C6C0923049F420E0D2
:100490009A858A89981321E02A87CE010996BBC0E4
:1004A000823049F420E09A858A89981321E02A8BCA
:1004B000CE014196B0C02D843E844F8458886D880B
:1004C0007E888F88988CEE24FF248701AA24BB2481
:1004D000650140E050E060E070E0E0E0F0E0C10184
:1004E00081709070892BE9F0E60CF71C081D191D2E
:1004F0009A01AB012A0D3B1D4C1D5D1D80E090E073
:10050000A0E0B0E0E614F7040805190520F481E046
:1005100090E0A0E0B0E0BA01A901480F591F6A1F9E
:100520007B1FAA0CBB1CCC1CDD1C97FE08C081E005
:1005300090E0A0E0B0E0A82AB92ACA2ADB2A3196C6
:10054000E032F10549F0660C771C881C991C569422
:10055000479437942794C3CFFA85EA892B893C893D
:100560008B859C85280F391F2E5F3F4F17C0CA010E
:1005700081709070892B61F016950795F794E79438
:1005800080E090E0A0E0B0E8E82AF92A0A2B1B2BD3
:1005900076956795579547952F5F3F4F77FDE7CF46
:1005A0000CC0440F551F661F771F17FD4160EE0CEE
:1005B000FF1C001F111F21503040403090E05907B0
:1005C00090E0690790E4790760F32B8F3C8FDB01A3
:1005D000CA018F779070A070B07080349105A1052A
:1005E000B10561F447FD0AC0E114F10401051105EC
:1005F00029F0405C5F4F6F4F7F4F40781A8EFE1797
:1006000011F081E08A8F4D8F5E8F6F8F78A383E02A
:10061000898FCE0149960E947E05A096E2E10C9456
:100620003522A8E1B0E0E7E1F3E00C9421226983F0
:100630007A838B839C832D833E834F835887B9E0D5
:10064000EB2EF12CEC0EFD1ECE010196B7010E949F
:1006500053068E010F5E1F4FCE010596B8010E9412
:1006600053062985223008F47EC03989323010F4CF
:10067000B8017CC08A859A8989278A87243011F03D
:10068000223031F4231709F06EC067E770E06EC0C6
:10069000343039F41D861E861F86188A1C861B86F8
:1006A00004C0323021F484E08987B7015FC02B8514
:1006B0003C858B899C89281B390B3C872B87ED84D3
:1006C000FE840F851889AD88BE88CF88D88CEA143F
:1006D000FB040C051D0540F4EE0CFF1C001F111F50
:1006E000215030403C872B8720E030E040E050E054
:1006F00080E090E0A0E0B0E460E070E0EA14FB0489
:100700000C051D0540F0282B392B4A2B5B2BEA18D2
:10071000FB080C091D09B695A79597958795EE0CD2
:10072000FF1C001F111F6F5F7F4F6F31710531F785
:10073000DA01C9018F779070A070B0708034910594
:10074000A105B10561F427FD0AC0E114F10401051A
:10075000110529F0205C3F4F4F4F5F4F20782D87C8
:100760003E874F87588BBE01675F7F4FCB010E944A
:100770007E056896EAE00C943D22A8E1B0E0E3EC47
:10078000F3E00C94252269837A838B839C832D83E9
:100790003E834F83588789E0E82EF12CEC0EFD1E36
:1007A000CE010196B7010E9453068E010F5E1F4FC6
:1007B000CE010596B8010E9453068985823040F02B
:1007C0008989823028F0C701B8010E94CB0601C098
:1007D00081E06896E6E00C944122A8E1B0E0E3EF06
:1007E000F3E00C94252269837A838B839C832D8389
:1007F0003E834F83588789E0E82EF12CEC0EFD1ED6
:10080000CE010196B7010E9453068E010F5E1F4F65
:10081000CE010596B8010E9453068985823040F0CA
:100820008989823028F0C701B8010E94CB0601C037
:100830008FEF6896E6E00C944122A8E1B0E0E3E295
:10084000F4E00C94252269837A838B839C832D8327
:100850003E834F83588789E0E82EF12CEC0EFD1E75
:10086000CE010196B7010E9453068E010F5E1F4F05
:10087000CE010596B8010E9453068985823040F06A
:100880008989823028F0C701B8010E94CB0601C0D7
:100890008FEF6896E6E00C944122A8E1B0E0E3E532
:1008A000F4E00C94252269837A838B839C832D83C7
:1008B0003E834F83588789E0E82EF12CEC0EFD1E15
:1008C000CE010196B7010E9453068E010F5E1F4FA5
:1008D000CE010596B8010E9453068985823040F00A
:1008E0008989823028F0C701B8010E94CB0601C077
:1008F00081E06896E6E00C944122A8E0B0E0E3E8ED
:10090000F4E00C9422229B01AC0183E08983DA019C
:10091000C9018827B7FD83959927AA27BB27B82E39
:10092000211531054105510519F482E089833AC04A
:100930008823A9F0203080E0380780E0480780E86D
:10094000580729F460E070E080E09FEC30C0EE24AE
:10095000FF248701E21AF30A040B150B02C0790188
:100960008A018EE1C82ED12CDC82CB82ED82FE8200
:100970000F831887C801B7010E942F050197181629
:10098000190684F4082E04C0EE0CFF1C001F111F72
:100990000A94D2F7ED82FE820F831887C81AD90A0B
:1009A000DC82CB82BA82CE0101960E947E05289617
:1009B000E9E00C943E22ACE0B0E0E1EEF4E00C940F
:1009C000292269837A838B839C83CE010196BE01A1
:1009D0006B5F7F4F0E9453068D81823061F18230C0
:1009E00050F1843021F48E81882351F12EC02F8163
:1009F000388537FD20C06E812F3131051CF066230C
:100A0000F9F023C08EE190E0821B930B29853A8593
:100A10004B855C8504C056954795379527958A95F3
:100A2000D2F76623B1F050954095309521953F4F10
:100A30004F4F5F4F0EC020E030E040E050E009C073
:100A40002FEF3FEF4FEF5FE704C020E030E040E0E2
:100A500050E8B901CA012C96E2E00C944522EF92CD
:100A6000FF920F931F937B018C0180E0E81680E0DA
:100A7000F80681E0080780E0180788F48FEFE81691
:100A8000F1040105110531F028F088E090E0A0E0C4
:100A9000B0E017C080E090E0A0E0B0E012C080E0DD
:100AA000E81680E0F80680E0080781E0180728F0E3
:100AB00088E190E0A0E0B0E004C080E190E0A0E038
:100AC000B0E020E230E040E050E0281B390B4A0B58
:100AD0005B0B04C016950795F794E7948A95D2F7B7
:100AE000F701E158FF4F8081281B31094109510965
:100AF000C9011F910F91FF90EF900895DF92EF923F
:100B0000FF920F931F93FC01E480F580068117810B
:100B1000D1808081823048F480E090E0A0E1B0E0B4
:100B2000E82AF92A0A2B1B2BA5C0843009F49FC0A0
:100B3000823021F4EE24FF24870105C0E114F10482
:100B40000105110519F4E0E0F0E096C062817381BF
:100B50009FEF623879070CF05BC022E83FEF261B5D
:100B6000370B2A3131052CF020E030E040E050E036
:100B70002AC0B801A701022E04C076956795579543
:100B800047950A94D2F781E090E0A0E0B0E004C07D
:100B9000880F991FAA1FBB1F2A95D2F70197A10999
:100BA000B1098E219F21A023B1230097A105B10592
:100BB00021F081E090E0A0E0B0E09A01AB01282BA9
:100BC000392B4A2B5B2BDA01C9018F779070A0700B
:100BD000B07080349105A105B10539F427FF09C033
:100BE000205C3F4F4F4F5F4F04C0215C3F4F4F4F42
:100BF0005F4FE0E0F0E02030A0E03A07A0E04A07D5
:100C0000A0E45A0710F0E1E0F0E079018A0127C082
:100C10006038710564F5FB01E158FF4FD801C70149
:100C20008F779070A070B07080349105A105B105E8
:100C300039F4E7FE0DC080E490E0A0E0B0E004C02D
:100C40008FE390E0A0E0B0E0E80EF91E0A1F1B1F42
:100C500017FF05C016950795F794E794319687E03E
:100C600016950795F794E7948A95D1F705C0EE2479
:100C7000FF248701EFEFF0E06E2F679566276795F9
:100C8000902F9F77D794DD24D7948E2F8695492F68
:100C9000462B582F5D29B701CA011F910F91FF9074
:100CA000EF90DF900895FC01DB01408151812281AA
:100CB000622F6F7770E0221F2227221F9381892FD6
:100CC000880F822B282F30E0991F9927991F1196A2
:100CD0009C93119721153105A9F541155105610521
:100CE000710511F482E037C082E89FEF13969C9360
:100CF0008E9312979A01AB0167E0220F331F441FB6
:100D0000551F6A95D1F783E08C930DC0220F331FD6
:100D1000441F551F12968D919C911397019713961E
:100D20009C938E931297203080E0380780E048072C
:100D300080E4580758F314962D933D934D935C939C
:100D4000179708952F3F310579F441155105610535
:100D5000710519F484E08C93089564FF03C081E069
:100D60008C9312C01C9210C02F57304013963C93A6
:100D70002E93129783E08C9387E0440F551F661FD4
:100D8000771F8A95D1F7706414964D935D936D9398
:100D90007C93179708951F93DC01FB019C9192307F
:100DA00008F447C08081823008F443C0943051F485
:100DB00011961C91843099F58181682F70E0611B38
:100DC00071093FC0843021F0923031F48230B9F1A2
:100DD0008181882389F12DC011961C911197823051
:100DE000F1F081811817D9F412962D913C91139747
:100DF000828193818217930794F028173907BCF0FA
:100E000014968D919D910D90BC91A02D24813581DA
:100E100046815781281739074A075B0718F41123C1
:100E200041F00AC082179307A407B50740F41123C5
:100E300019F061E070E005C06FEF7FEF02C060E085
:100E400070E0CB011F910895DF93CF9300D00F92F4
:100E5000CDB7DEB79A8389836B83E981FA8180817C
:100E600091810196E981FA8191838083E981FA81F8
:100E70002081318189819A81820F931FFC013296F2
:100E80008B8180830F900F900F90CF91DF91089509
:100E9000DF93CF9300D0CDB7DEB79A838983E98102
:100EA000FA812081318189819A81820F931FFC010F
:100EB00032964081C9010197E981FA81918380834B
:100EC000842F0F900F90CF91DF910895DF93CF93F0
:100ED00000D00F92CDB7DEB79A838983E981FA817A
:100EE000808191812FEF8F3F920711F41B820CC0FC
:100EF000E981FA812081318189819A81820F931F52
:100F0000FC01329680818B838B810F900F900F9024
:100F1000CF91DF910895DF93CF9300D000D000D020
:100F2000CDB7DEB79A838983E981FA818081918187
:100F30001B821C821D821E822FEF8F3F920741F47D
:100F400081E090E0A0E0B0E08B839C83AD83BE8322
:100F50008B819C81AD81BE81BC01CD0126960FB6EF
:100F6000F894DEBF0FBECDBFCF91DF910895DF9320
:100F7000CF9300D000D000D0CDB7DEB79A8389835D
:100F80004B835C836D837E83E981FA8180819181CB
:100F90000196E981FA8191838083E981FA818081D8
:100FA000918129813A81880F991F0196880F991F95
:100FB000F901E80FF91F8B819C81AD81BE8180838F
:100FC0009183A283B38326960FB6F894DEBF0FBE3B
:100FD000CDBFCF91DF910895DF93CF9300D0CDB7F0
:100FE000DEB79A838983E981FA8140815181298121
:100FF0003A81CA01880F991F0196880F991FF9013C
:10100000E80FF91F80819181A281B3819A0121505B
:101010003040E981FA8131832083BC01CD010F90FA
:101020000F90CF91DF910895DF93CF930F92CDB7BB
:10103000DEB781E08983EAE3F0E08FEF8083E7E3C6
:10104000F0E086EB8083E4E3F0E086EB8083E1E38D
:10105000F0E086EB8083EBE3F0E01082E8E3F0E081
:101060008AE38083E5E3F0E08AE38083E2E3F0E073
:101070008AE38083198289810F90CF91DF9108954F
:10108000DF93CF9300D000D00F92CDB7DEB78A8325
:101090006B8381E089838A818430A0F58A81282F3F
:1010A00030E03D832C838C819D8181309105D1F08E
:1010B0002C813D81223031052CF48C819D8100975B
:1010C00061F01EC02C813D812230310581F08C8180
:1010D0009D818330910581F013C0EAE3F0E08B81BC
:1010E00080830EC0E7E3F0E08B81808309C0E4E3F6
:1010F000F0E08B81808304C0E1E3F0E08B818083AA
:10110000198202C083E0898389810F900F900F902C
:101110000F900F90CF91DF910895DF93CF9300D080
:1011200000D00F92CDB7DEB78A836B8381E08983CD
:101130008A818430A0F58A81282F30E03D832C837A
:101140008C819D8181309105D1F02C813D812230AF
:1011500031052CF48C819D81009761F01EC02C819B
:101160003D812230310581F08C819D818330910554
:1011700081F013C0EBE3F0E08B8180830EC0E8E3E5
:10118000F0E08B81808309C0E5E3F0E08B81808310
:1011900004C0E2E3F0E08B818083198202C083E027
:1011A000898389810F900F900F900F900F90CF91AE
:1011B000DF910895DF93CF9300D000D0CDB7DEB795
:1011C0008A8381E089838A81843008F040C08A81E3
:1011D000282F30E03C832B838B819C8181309105CB
:1011E000E9F02B813C81223031052CF48B819C81EC
:1011F000009761F02AC02B813C8122303105B1F08B
:101200008B819C8183309105C9F01FC0ABE3B0E0B6
:10121000EBE3F0E0808180958C9317C0A8E3B0E009
:10122000E8E3F0E0808180958C930FC0A5E3B0E007
:10123000E5E3F0E0808180958C9307C0A2E3B0E005
:10124000E2E3F0E0808180958C93198202C083E014
:10125000898389810F900F900F900F90CF91DF912C
:101260000895DF93CF9300D000D000D0CDB7DEB784
:101270008A837C836B8381E089838B819C81009747
:1012800009F442C08A818430E0F58A81282F30E059
:101290003E832D838D819E8181309105E1F02D81EA
:1012A0003E81223031052CF48D819E81009761F0C2
:1012B00026C02D813E8122303105A1F08D819E8195
:1012C00083309105B1F01BC0E9E3F0E08081EB8150
:1012D000FC81808314C0E6E3F0E08081EB81FC8137
:1012E00080830DC0E3E3F0E08081EB81FC818083AB
:1012F00006C0E0E3F0E08081EB81FC81808319820D
:1013000005C083E0898302C082E0898389812696B3
:101310000FB6F894DEBF0FBECDBFCF91DF91089519
:10132000DF93CF9300D000D000D0CDB7DEB78A8353
:101330006B834C8381E089838A81843008F0D0C03C
:101340008B81883008F0CCC08C81823008F0C8C016
:101350008A81282F30E03E832D836D817E8161302C
:10136000710509F441C08D819E818230910534F46C
:101370002D813E812115310571F0B0C06D817E81D6
:101380006230710509F459C08D819E8183309105C9
:1013900009F47CC0A3C0AAE3B0E0EAE3F0E08081F6
:1013A000482F8B81282F30E081E090E002C0880F29
:1013B000991F2A95E2F7809584238C93AAE3B0E0E5
:1013C000EAE3F0E08081482F8C81282F30E08B8188
:1013D000882F90E0B90102C0660F771F8A95E2F767
:1013E000CB01842B8C937AC0A7E3B0E0E7E3F0E075
:1013F0008081482F8B81282F30E081E090E002C06F
:10140000880F991F2A95E2F7809584238C93A7E390
:10141000B0E0E7E3F0E08081482F8C81282F30E0B6
:101420008B81882F90E0B90102C0660F771F8A95E3
:10143000E2F7CB01842B8C9351C0A4E3B0E0E4E34A
:10144000F0E08081482F8B81282F30E081E090E010
:1014500002C0880F991F2A95E2F7809584238C9308
:10146000A4E3B0E0E4E3F0E08081482F8C81282FF2
:1014700030E08B81882F90E0B90102C0660F771FA2
:101480008A95E2F7CB01842B8C9328C0A1E3B0E0CE
:10149000E1E3F0E08081482F8B81282F30E081E06C
:1014A00090E002C0880F991F2A95E2F78095842367
:1014B0008C93A1E3B0E0E1E3F0E08081482F8C81E0
:1014C000282F30E08B81882F90E0B90102C0660F91
:1014D000771F8A95E2F7CB01842B8C93198202C087
:1014E00083E08983898126960FB6F894DEBF0FBE0C
:1014F000CDBFCF91DF910895DF93CF9300D000D07F
:1015000000D0CDB7DEB78A836B834C8381E08983BB
:101510008A81843008F0D0C08B81883008F0CCC03C
:101520008C81823008F0C8C08A81282F30E03E8349
:101530002D836D817E816130710509F441C08D81FB
:101540009E818230910534F42D813E812115310533
:1015500071F0B0C06D817E816230710509F459C0AF
:101560008D819E818330910509F47CC0A3C0ABE3DB
:10157000B0E0EBE3F0E08081482F8B81282F30E052
:1015800081E090E002C0880F991F2A95E2F78095CC
:1015900084238C93ABE3B0E0EBE3F0E08081482F51
:1015A0008C81282F30E08B81882F90E0B90102C018
:1015B000660F771F8A95E2F7CB01842B8C937AC054
:1015C000A8E3B0E0E8E3F0E08081482F8B81282F8A
:1015D00030E081E090E002C0880F991F2A95E2F781
:1015E000809584238C93A8E3B0E0E8E3F0E0808169
:1015F000482F8C81282F30E08B81882F90E0B90113
:1016000002C0660F771F8A95E2F7CB01842B8C937B
:1016100051C0A5E3B0E0E5E3F0E08081482F8B8185
:10162000282F30E081E090E002C0880F991F2A95B2
:10163000E2F7809584238C93A5E3B0E0E5E3F0E046
:101640008081482F8C81282F30E08B81882F90E07B
:10165000B90102C0660F771F8A95E2F7CB01842B90
:101660008C9328C0A2E3B0E0E2E3F0E08081482F51
:101670008B81282F30E081E090E002C0880F991F15
:101680002A95E2F7809584238C93A2E3B0E0E2E30D
:10169000F0E08081482F8C81282F30E08B81882FCB
:1016A00090E0B90102C0660F771F8A95E2F7CB017F
:1016B000842B8C93198202C083E0898389812696CA
:1016C0000FB6F894DEBF0FBECDBFCF91DF91089566
:1016D000DF93CF9300D000D00F92CDB7DEB78A83CF
:1016E0006B8381E089838A81843008F074C08B81A8
:1016F000883008F070C08A81282F30E03D832C8329
:101700008C819D818130910549F12C813D81223070
:1017100031052CF48C819D81009761F05AC02C8199
:101720003D812230310571F18C819D81833091059D
:10173000E9F14FC0ABE3B0E0EBE3F0E08081482F8C
:101740008B81282F30E081E090E0022E02C0880FCC
:10175000991F0A94E2F784278C933BC0A8E3B0E07A
:10176000E8E3F0E08081482F8B81282F30E081E092
:1017700090E0022E02C0880F991F0A94E2F7842796
:101780008C9327C0A5E3B0E0E5E3F0E08081482F2B
:101790008B81282F30E081E090E0022E02C0880F7C
:1017A000991F0A94E2F784278C9313C0A2E3B0E058
:1017B000E2E3F0E08081482F8B81282F30E081E048
:1017C00090E0022E02C0880F991F0A94E2F7842746
:1017D0008C93198202C083E0898389810F900F90D6
:1017E0000F900F900F90CF91DF910895DF93CF93DB
:1017F000CDB7DEB727970FB6F894DEBF0FBECDBFCB
:101800008A836B835D834C8381E089838C819D8196
:10181000009709F47DC08A81843008F076C08B81FE
:10182000883008F072C08A81282F30E03F832E83F1
:101830004E815F814130510559F18E819F81823007
:10184000910534F42E813F812115310569F05BC08B
:101850004E815F814230510579F18E819F818330C5
:10186000910509F43DC04FC0E9E3F0E08081282FE5
:1018700030E08B81882F90E0A90102C055954795F3
:101880008A95E2F7CA018170EC81FD8180833BC0BB
:10189000E6E3F0E08081282F30E08B81882F90E014
:1018A000A90102C0559547958A95E2F7CA01817052
:1018B000EC81FD81808327C0E3E3F0E08081282F65
:1018C00030E08B81882F90E0A90102C055954795A3
:1018D0008A95E2F7CA018170EC81FD81808313C093
:1018E000E0E3F0E08081282F30E08B81882F90E0CA
:1018F000A90102C0559547958A95E2F7CA01817002
:10190000EC81FD818083198205C083E0898302C058
:1019100082E08983898127960FB6F894DEBF0FBED7
:10192000CDBFCF91DF910895DF93CF93CDB7DEB7D1
:10193000E8970FB6F894DEBF0FBECDBF80E090E011
:10194000A0E2B2E48DAB9EABAFABB8AF6DA97EA900
:101950008FA998AD20E030E04AE753E40E941702D7
:10196000DC01CB0189AB9AABABABBCAB69A97AA963
:101970008BA99CA920E030E040E85FE30E944D0481
:1019800088232CF481E090E098AB8FA73FC069A931
:101990007AA98BA99CA920E03FEF4FE757E40E946A
:1019A000ED0318164CF56DA97EA98FA998AD20E01E
:1019B00030E040E251E40E941702DC01CB01BC019F
:1019C000CD010E944100DC01CB0198AB8FA70FC075
:1019D00089E190E09EA78DA78DA59EA50197F1F7BF
:1019E0009EA78DA78FA598A9019798AB8FA78FA5C4
:1019F00098A9009769F714C069A97AA98BA99CA92D
:101A00000E944100DC01CB0198AB8FA78FA598A95C
:101A10009CA78BA78BA59CA50197F1F79CA78BA7EB
:101A200080E062E041E00E94900980E060E041E0F7
:101A30000E94900980E061E041E00E94900981E00D
:101A400064E041E00E94900981E065E041E00E948D
:101A5000900981E066E041E00E94900981E067E042
:101A600041E00E94900981E060E041E00E9490091D
:101A700081E061E041E00E94900981E062E041E0A4
:101A80000E94900981E063E041E00E94900980E0BB
:101A900060E040E00E947C0A88E30E94B80E80E08B
:101AA00090E0A0E8BFE38FA398A7A9A7BAA76FA16A
:101AB00078A589A59AA520E030E04AE753E40E9482
:101AC0001702DC01CB018BA39CA3ADA3BEA36BA12A
:101AD0007CA18DA19EA120E030E040E85FE30E9460
:101AE0004D0488232CF481E090E09AA389A33FC0A1
:101AF0006BA17CA18DA19EA120E03FEF4FE757E4B1
:101B00000E94ED0318164CF56FA178A589A59AA53A
:101B100020E030E040E251E40E941702DC01CB01FA
:101B2000BC01CD010E944100DC01CB019AA389A335
:101B30000FC089E190E098A38F8F8F8D98A10197B6
:101B4000F1F798A38F8F89A19AA101979AA389A3EE
:101B500089A19AA1009769F714C06BA17CA18DA1FE
:101B60009EA10E944100DC01CB019AA389A389A117
:101B70009AA19E8F8D8F8D8D9E8D0197F1F79E8FEF
:101B80008D8F8FE00E94B80E80E090E0A0E8BFE368
:101B9000898F9A8FAB8FBC8F698D7A8D8B8D9C8D41
:101BA00020E030E04AE753E40E941702DC01CB0159
:101BB0008D8B9E8BAF8BB88F6D897E898F89988D29
:101BC00020E030E040E85FE30E944D0488232CF4DD
:101BD00081E090E09C8B8B8B3FC06D897E898F89E3
:101BE000988D20E03FEF4FE757E40E94ED03181671
:101BF0004CF5698D7A8D8B8D9C8D20E030E040E234
:101C000051E40E941702DC01CB01BC01CD010E940E
:101C10004100DC01CB019C8B8B8B0FC089E190E0F4
:101C20009A8B898B89899A890197F1F79A8B898B8D
:101C30008B899C8901979C8B8B8B8B899C890097C6
:101C400069F714C06D897E898F89988D0E94410043
:101C5000DC01CB019C8B8B8B8B899C89988B8F872C
:101C60008F8598890197F1F7988B8F8781E00E9483
:101C7000B80E80E090E0A0ECBFE38B879C87AD8737
:101C8000BE876B857C858D859E8520E030E04AE7A8
:101C900053E40E941702DC01CB018F839887A98748
:101CA000BA876F81788589859A8520E030E040E8A1
:101CB0005FE30E944D0488232CF481E090E09E8332
:101CC0008D833FC06F81788589859A8520E03FEFBD
:101CD0004FE757E40E94ED0318164CF56B857C85A1
:101CE0008D859E8520E030E040E251E40E9417029D
:101CF000DC01CB01BC01CD010E944100DC01CB0124
:101D00009E838D830FC089E190E09C838B838B81C0
:101D10009C810197F1F79C838B838D819E81019734
:101D20009E838D838D819E81009769F714C06F819A
:101D3000788589859A850E944100DC01CB019E83CC
:101D40008D838D819E819A83898389819A81019770
:101D5000F1F79A83898386E00E94B80E80E0E896C6
:101D60000FB6F894DEBF0FBECDBFCF91DF910895BF
:101D7000DF93CF93CDB7DEB72F970FB6F894DEBFC2
:101D80000FBECDBF8F8780E062E040E00E947C0AFA
:101D900080E061E040E00E947C0A8F8582958F7030
:101DA000982F917081E064E0492F0E947C0A8F8512
:101DB000829586958770982F917081E065E0492F14
:101DC0000E947C0A8F858295869586958370982FD0
:101DD000917081E066E0492F0E947C0A8F85982FE0
:101DE000991F9927991F81E067E0492F0E947C0A7B
:101DF0008F85982F917081E060E0492F0E947C0AC6
:101E00008F858695982F917081E061E0492F0E941F
:101E10007C0A8F8586958695982F917081E062E087
:101E2000492F0E947C0A8F85869586958695982FE6
:101E3000917081E063E0492F0E947C0A80E062E0BB
:101E400041E00E947C0A80E090E0A0E2B1E48B8750
:101E50009C87AD87BE876B857C858D859E8520E0C0
:101E600030E04AE753E40E941702DC01CB018F8384
:101E70009887A987BA876F81788589859A8520E0B8
:101E800030E040E85FE30E944D0488232CF481E0B9
:101E900090E09E838D833FC06F81788589859A8588
:101EA00020E03FEF4FE757E40E94ED0318164CF592
:101EB0006B857C858D859E8520E030E040E251E495
:101EC0000E941702DC01CB01BC01CD010E94410040
:101ED000DC01CB019E838D830FC089E190E09C8360
:101EE0008B838B819C810197F1F79C838B838D8100
:101EF0009E8101979E838D838D819E81009769F7D6
:101F000014C06F81788589859A850E944100DC0123
:101F1000CB019E838D838D819E819A838983898164
:101F20009A810197F1F79A83898380E062E040E02B
:101F30000E947C0A2F960FB6F894DEBF0FBECDBF6D
:101F4000CF91DF910895DF93CF93CDB7DEB7609740
:101F50000FB6F894DEBF0FBECDBF888B81E08F87B0
:101F600080E062E040E00E947C0A80E060E040E0C7
:101F70000E947C0A80E061E040E00E947C0A88893F
:101F800082958F70982F917081E064E0492F0E94B4
:101F90007C0A8889829586958770982F917081E058
:101FA00065E0492F0E947C0A8889829586958695EE
:101FB0008370982F917081E066E0492F0E947C0A1F
:101FC0008889982F991F9927991F81E067E0492FE9
:101FD0000E947C0A8889982F917081E060E0492FE7
:101FE0000E947C0A88898695982F917081E061E033
:101FF000492F0E947C0A888986958695982F917032
:1020000081E062E0492F0E947C0A88898695869546
:102010008695982F917081E063E0492F0E947C0A99
:1020200080E062E041E00E947C0A80E090E0A0E273
:10203000B1E48B879C87AD87BE876B857C858D855A
:102040009E8520E030E04AE753E40E941702DC015D
:10205000CB018F839887A987BA876F817885898517
:102060009A8520E030E040E85FE30E944D04882339
:102070002CF481E090E09E838D833FC06F81788552
:1020800089859A8520E03FEF4FE757E40E94ED03F2
:1020900018164CF56B857C858D859E8520E030E09B
:1020A00040E251E40E941702DC01CB01BC01CD01EA
:1020B0000E944100DC01CB019E838D830FC089E12A
:1020C00090E09C838B838B819C810197F1F79C83AB
:1020D0008B838D819E8101979E838D838D819E81CF
:1020E000009769F714C06F81788589859A850E9469
:1020F0004100DC01CB019E838D838D819E819A837B
:10210000898389819A810197F1F79A83898380E095
:1021100062E040E00E947C0A8F8560960FB6F894DA
:10212000DEBF0FBECDBFCF91DF910895DF93CF9378
:10213000CDB7DEB72F970FB6F894DEBF0FBECDBF79
:1021400081E08F8780E062E040E00E947C0A80E0CE
:1021500060E040E00E947C0A80E061E040E00E9494
:102160007C0A81E060E040E00E947C0A81E061E05E
:1021700040E00E947C0A81E062E041E00E947C0A2B
:1021800081E063E040E00E947C0A81E064E040E09E
:102190000E947C0A81E065E040E00E947C0A81E0C8
:1021A00066E040E00E947C0A81E067E040E00E9437
:1021B0007C0A80E062E041E00E947C0A80E090E0DE
:1021C000A0E2B1E48B879C87AD87BE876B857C8559
:1021D0008D859E8520E030E04AE753E40E94170297
:1021E000DC01CB018F839887A987BA876F817885B7
:1021F00089859A8520E030E040E85FE30E944D0445
:1022000088232CF481E090E09E838D833FC06F8112
:10221000788589859A8520E03FEF4FE757E40E9453
:10222000ED0318164CF56B857C858D859E8520E029
:1022300030E040E251E40E941702DC01CB01BC0116
:10224000CD010E944100DC01CB019E838D830FC034
:1022500089E190E09C838B838B819C810197F1F7CE
:102260009C838B838D819E8101979E838D838D813D
:102270009E81009769F714C06F81788589859A855A
:102280000E944100DC01CB019E838D838D819E8164
:102290009A83898389819A810197F1F79A83898347
:1022A00080E062E040E00E947C0A8F852F960FB6A6
:1022B000F894DEBF0FBECDBFCF91DF910895DF93BD
:1022C000CF93CDB7DEB72F970FB6F894DEBF0FBE12
:1022D000CDBF81E08F8780E062E040E00E947C0A11
:1022E00080E060E040E00E947C0A80E061E040E045
:1022F0000E947C0A81E060E040E00E947C0A81E06C
:1023000061E041E00E947C0A81E062E041E00E94DD
:102310007C0A81E063E040E00E947C0A81E064E0A6
:1023200040E00E947C0A81E065E040E00E947C0A77
:1023300081E066E040E00E947C0A81E067E040E0E6
:102340000E947C0A80E062E041E00E947C0A80E01A
:1023500090E0A0E2B1E48B879C87AD87BE876B8558
:102360007C858D859E8520E030E04AE753E40E941D
:102370001702DC01CB018F839887A987BA876F8109
:10238000788589859A8520E030E040E85FE30E9407
:102390004D0488232CF481E090E09E838D833FC020
:1023A0006F81788589859A8520E03FEF4FE757E474
:1023B0000E94ED0318164CF56B857C858D859E85F6
:1023C00020E030E040E251E40E941702DC01CB0142
:1023D000BC01CD010E944100DC01CB019E838D83B5
:1023E0000FC089E190E09C838B838B819C81019756
:1023F000F1F79C838B838D819E8101979E838D83D2
:102400008D819E81009769F714C06F8178858985D9
:102410009A850E944100DC01CB019E838D838D81D2
:102420009E819A83898389819A810197F1F79A83A2
:10243000898380E062E040E00E947C0A8F852F96CD
:102440000FB6F894DEBF0FBECDBFCF91DF910895D8
:10245000DF93CF93CDB7DEB763970FB6F894DEBFA7
:102460000FBECDBF898B7B8B6A8B81E0888B80E030
:1024700062E040E00E947C0A80E060E040E00E9470
:102480007C0A80E061E040E00E947C0A8989882F14
:1024900090E00896880F991F880F991F880F991F41
:1024A000898B8989882314F483E0888B8989982F04
:1024B000917081E060E0492F0E947C0A89898695AD
:1024C000982F917081E061E0492F0E947C0A8989F0
:1024D00086958695982F917081E062E0492F0E9441
:1024E0007C0A8989869586958695982F917081E0DA
:1024F00063E0492F0E947C0A898982958F70982F0A
:10250000917081E064E0492F0E947C0A898982955C
:1025100086958770982F917081E065E0492F0E9421
:102520007C0A89898295869586958370982F91700B
:1025300081E066E0492F0E947C0A8989982F991FC3
:102540009927991F81E067E0492F0E947C0A80E06B
:1025500062E041E00E947C0A80E090E0A0E2B1E409
:102560008B879C87AD87BE876B857C858D859E8597
:1025700020E030E04AE753E40E941702DC01CB017F
:102580008F839887A987BA876F81788589859A858F
:1025900020E030E040E85FE30E944D0488232CF403
:1025A00081E090E09E838D833FC06F81788589852F
:1025B0009A8520E03FEF4FE757E40E94ED0318169D
:1025C0004CF56B857C858D859E8520E030E040E272
:1025D00051E40E941702DC01CB01BC01CD010E9435
:1025E0004100DC01CB019E838D830FC089E190E027
:1025F0009C838B838B819C810197F1F79C838B83D8
:102600008D819E8101979E838D838D819E81009710
:1026100069F714C06F81788589859A850E94410089
:10262000DC01CB019E838D838D819E819A8389837A
:1026300089819A810197F1F79A83898380E062E02A
:1026400040E00E947C0A1F8680E060E041E00E943A
:102650007C0A1F860EC08F85282F30E08A899B89CF
:10266000FC01E20FF31F80810E94B80E8F858F5FFF
:102670008F878F85883078F3888963960FB6F894B2
:10268000DEBF0FBECDBFCF91DF910895DF93CF9313
:10269000CDB7DEB761970FB6F894DEBF0FBECDBFE2
:1026A000888B698B81E08F8780E062E040E00E9448
:1026B0007C0A80E060E040E00E947C0A80E061E00B
:1026C00040E00E947C0A8989813059F488898823F6
:1026D00041F08889813128F48889815880937F016D
:1026E00010C08989823059F48889882341F088890B
:1026F000813128F48889815480937F0102C083E06E
:102700008F8780917F01982F917081E060E0492F41
:102710000E947C0A80917F018695982F917081E0BC
:1027200061E0492F0E947C0A80917F018695869501
:10273000982F917081E062E0492F0E947C0A80917D
:102740007F01869586958695982F917081E063E04C
:10275000492F0E947C0A80917F0182958F70982F6B
:10276000917081E064E0492F0E947C0A80917F0192
:10277000829586958770982F917081E065E0492F4A
:102780000E947C0A80917F01829586958695837050
:10279000982F917081E066E0492F0E947C0A809119
:1027A0007F01982F991F9927991F81E067E0492F92
:1027B0000E947C0A80E062E041E00E947C0A80E0A6
:1027C00090E0A0E2B1E48B879C87AD87BE876B85E4
:1027D0007C858D859E8520E030E04AE753E40E94A9
:1027E0001702DC01CB018F839887A987BA876F8195
:1027F000788589859A8520E030E040E85FE30E9493
:102800004D0488232CF481E090E09E838D833FC0AB
:102810006F81788589859A8520E03FEF4FE757E4FF
:102820000E94ED0318164CF56B857C858D859E8581
:1028300020E030E040E251E40E941702DC01CB01CD
:10284000BC01CD010E944100DC01CB019E838D8340
:102850000FC089E190E09C838B838B819C810197E1
:10286000F1F79C838B838D819E8101979E838D835D
:102870008D819E81009769F714C06F817885898565
:102880009A850E944100DC01CB019E838D838D815E
:102890009E819A83898389819A810197F1F79A832E
:1028A000898380E062E040E00E947C0A8F85619627
:1028B0000FB6F894DEBF0FBECDBFCF91DF91089564
:1028C000DF93CF93CDB7DEB72F970FB6F894DEBF67
:1028D0000FBECDBF81E08F8780E062E040E00E94C4
:1028E0007C0A80E060E040E00E947C0A80E061E0D9
:1028F00040E00E947C0A81E060E041E00E947C0AA6
:1029000081E061E040E00E947C0A81E062E040E01A
:102910000E947C0A81E063E040E00E947C0A81E042
:1029200064E040E00E947C0A81E065E040E00E94B3
:102930007C0A81E066E040E00E947C0A81E067E07A
:1029400040E00E947C0A80E062E041E00E947C0A54
:1029500080E090E0A0E2B1E48B879C87AD87BE87E2
:102960006B857C858D859E8520E030E04AE753E4C9
:102970000E941702DC01CB018F839887A987BA8751
:102980006F81788589859A8520E030E040E85FE3B3
:102990000E944D0488232CF481E090E09E838D8377
:1029A0003FC06F81788589859A8520E03FEF4FE7AA
:1029B00057E40E94ED0318164CF56B857C858D85D8
:1029C0009E8520E030E040E251E40E941702DC01E5
:1029D000CB01BC01CD010E944100DC01CB019E83F3
:1029E0008D830FC089E190E09C838B838B819C81D8
:1029F0000197F1F79C838B838D819E8101979E8344
:102A00008D838D819E81009769F714C06F817885D1
:102A100089859A850E944100DC01CB019E838D83CC
:102A20008D819E819A83898389819A810197F1F7AB
:102A30009A83898380E062E040E00E947C0A8F856F
:102A40002F960FB6F894DEBF0FBECDBFCF91DF91AA
:102A50000895DF93CF93CDB7DEB760970FB6F894A4
:102A6000DEBF0FBECDBF888B81E08F8780E062E044
:102A700040E00E947C0A80E060E040E00E947C0A26
:102A800080E061E040E00E947C0A80917F01803913
:102A900040F080917F01803C20F480EC80937F01A6
:102AA0000BC080917F01803D38F080917F018823A9
:102AB0001CF080E880937F0180917F01982F9170B6
:102AC00081E060E0492F0E947C0A80917F01869519
:102AD000982F917081E061E0492F0E947C0A8091DB
:102AE0007F0186958695982F917081E062E0492F4D
:102AF0000E947C0A80917F01869586958695982F05
:102B0000917081E063E0492F0E947C0A80917F01EF
:102B100082958F70982F917081E064E0492F0E9418
:102B20007C0A80917F01829586958770982F91709D
:102B300081E065E0492F0E947C0A80917F018295A7
:102B4000869586958370982F917081E066E0492F75
:102B50000E947C0A80917F01982F991F9927991FC5
:102B600081E067E0492F0E947C0A80E062E041E05A
:102B70000E947C0A80E090E0A0E2B1E48B879C8711
:102B8000AD87BE876B857C858D859E8520E030E096
:102B90004AE753E40E941702DC01CB018F83988738
:102BA000A987BA876F81788589859A8520E030E08A
:102BB00040E85FE30E944D0488232CF481E090E01C
:102BC0009E838D833FC06F81788589859A8520E0BB
:102BD0003FEF4FE757E40E94ED0318164CF56B8565
:102BE0007C858D859E8520E030E040E251E40E94A6
:102BF0001702DC01CB01BC01CD010E944100DC01C8
:102C0000CB019E838D830FC089E190E09C838B83F1
:102C10008B819C810197F1F79C838B838D819E81B1
:102C200001979E838D838D819E81009769F714C0E3
:102C30006F81788589859A850E944100DC01CB01EE
:102C40009E838D838D819E819A83898389819A81D8
:102C50000197F1F79A83898380E062E040E00E9467
:102C60007C0A80E060E041E00E947C0A88890E9442
:102C7000B80E80917F018F5F80937F018F85609672
:102C80000FB6F894DEBF0FBECDBFCF91DF91089590
:102C9000DF93CF9300D000D0CDB7DEB79C838B837A
:102CA00081E08A8380E060E041E00E947C0A198232
:102CB00019820EC08981282F30E08B819C81FC0114
:102CC000E20FF31F80810E94B80E89818F5F898394
:102CD0008981282F30E08B819C81FC01E20FF31F5A
:102CE0008081882339F78A810F900F900F900F9081
:102CF000CF91DF910895EF92FF920F931F93DF938F
:102D0000CF93CDB7DEB761970FB6F894DEBF0FBE95
:102D1000CDBF6A877B878C879D8781E0898780E02C
:102D200060E041E00E947C0A1D821E821F8218869C
:102D300019821A821B821C825BC08D819E81AF81A9
:102D4000B8852AE030E040E050E0BC01CD010E94AF
:102D5000BD217B018C018A859B85AC85BD852AE0E0
:102D600030E040E050E0BC01CD010E94DC21DC01FC
:102D7000CB018E0D9F1DA01FB11F8D839E83AF833E
:102D8000B8878A859B85AC85BD852AE030E040E028
:102D900050E0BC01CD010E94DC21DC01CB01009799
:102DA000A105B10599F48D819E81AF81B885009709
:102DB000A105B10559F489819A81AB81BC81019645
:102DC000A11DB11D89839A83AB83BC838A859B85B2
:102DD000AC85BD852AE030E040E050E0BC01CD018B
:102DE0000E94DC21DA01C9018A879B87AC87BD87F5
:102DF0008A859B85AC85BD850097A105B10509F045
:102E00009CCFC9C08D819E81AF81B8852AE030E01A
:102E100040E050E0BC01CD010E94DC21DC01CB018F
:102E20008E879F87A88BB98B8E859F85A889B98946
:102E300084309105A105B10509F484C08E859F8574
:102E4000A889B98985309105A105B10594F58E85CC
:102E50009F85A889B98981309105A105B10509F43B
:102E600065C08E859F85A889B98982309105A105A5
:102E7000B10554F48E859F85A889B9890097A1056D
:102E8000B10509F44FC075C08E859F85A889B989A1
:102E900082309105A105B10509F44CC08E859F854E
:102EA000A889B98983309105A105B10509F446C007
:102EB00060C08E859F85A889B98987309105A10555
:102EC000B10509F44BC08E859F85A889B9898830E2
:102ED0009105A105B1059CF48E859F85A889B989C6
:102EE00085309105A105B10589F18E859F85A88959
:102EF000B98986309105A105B10561F13AC08E8589
:102F00009F85A889B98988309105A105B10551F13E
:102F10008E859F85A889B98989309105A105B1055C
:102F200029F127C080E30E94B80E23C081E30E94EC
:102F3000B80E1FC082E30E94B80E1BC083E30E943C
:102F4000B80E17C084E30E94B80E13C085E30E9438
:102F5000B80E0FC086E30E94B80E0BC087E30E9434
:102F6000B80E07C088E30E94B80E03C089E30E9430
:102F7000B80E8D819E81AF81B8852AE030E040E0B7
:102F800050E0BC01CD010E94DC21DA01C9018D8332
:102F90009E83AF83B8878D819E81AF81B88500976E
:102FA000A105B10509F02ECF0EC080E30E94B80E36
:102FB00089819A81AB81BC810197A109B10989837B
:102FC0009A83AB83BC8389819A81AB81BC81009752
:102FD000A105B10551F7898561960FB6F894DEBF5A
:102FE0000FBECDBFCF91DF911F910F91FF90EF905A
:102FF0000895DF93CF9300D000D00F92CDB7DEB706
:103000006A837B838C839D8381E089836A817B8152
:103010008C819D810E94DB04DC01CB01BC01CD01D0
:103020000E947B1680E690E00E9448166A817B81B0
:103030008C819D810E94DB04DC01CB01BC01CD01B0
:103040000E947D049B01AC016A817B818C819D8102
:103050000E94B901DC01CB01BC01CD0120E030E0D0
:103060004AE754E40E941702DC01CB01BC01CD0108
:103070000E94DB04DC01CB01BC01CD010E947B1668
:1030800089810F900F900F900F900F90CF91DF914B
:103090000895DF93CF930F92CDB7DEB781E0898398
:1030A00082E060E041E00E94900982E061E041E05E
:1030B0000E94900982E062E041E00E94900982E073
:1030C00063E041E00E94900982E060E041E00E94FC
:1030D0007C0A82E061E041E00E947C0A82E062E0DA
:1030E00041E00E947C0A82E063E041E00E947C0AA9
:1030F00082E064E040E00E94900982E065E040E008
:103100000E94900982E066E040E00E94900982E01F
:1031100067E040E00E94900982E064E041E00E94A4
:103120007C0A82E065E041E00E947C0A82E066E081
:1031300041E00E947C0A82E067E041E00E947C0A54
:10314000198289810F90CF91DF910895DF93CF93FA
:10315000CDB7DEB767970FB6F894DEBF0FBECDBF11
:103160009E8B8D8B81E08B8384E08C8385E08D83C7
:1031700086E08E8387E08F8382E0888782E089877C
:1031800082E08A8782E08B871C8681E08D8782E0DF
:103190008E8783E08F8782E0888B82E0898B82E054
:1031A0008A8B82E08B8B1A8219821C8AED89FE89B8
:1031B0008FEF808319828CC08981282F30E0CE0167
:1031C0004096FC01E20FF31F40818981282F30E0F7
:1031D000CE010C96FC01E20FF31F9081842F692F22
:1031E00040E00E947C0A1A8255C08A81282F30E074
:1031F000CE010896FC01E20FF31F40818A81282F3F
:1032000030E0CE010496FC01E20FF31F90819E0195
:103210002C5E3F4F842F692FA9010E94F60B8C89E9
:103220008823A9F58981482F50E08A81282F30E032
:10323000CA01880F991F880F991F820F931FFC01E5
:10324000E058FE4F8081ED89FE8980831AC08A8113
:10325000282F30E0CE010896FC01E20FF31F4081D9
:103260008A81282F30E0CE010496FC01E20FF31F83
:1032700090819E012C5E3F4F842F692FA9010E94EF
:10328000F60B8C89882319F38B818F8B27C08A8159
:103290008F5F8A838A81843008F4A7CF8981282FA1
:1032A00030E0CE014096FC01E20FF31F408189819E
:1032B000282F30E0CE010C96FC01E20FF31F908125
:1032C000842F692F41E00E947C0A89818F5F898366
:1032D0008981843008F470CF8B818F8B8F896796BA
:1032E0000FB6F894DEBF0FBECDBFCF91DF9108952A
:1032F000DF93CF9300D000D0CDB7DEB7898389812B
:10330000282F30E03C832B838B819C818B3291056D
:10331000B1F02B813C812C32310534F48B819C81BE
:103320008A32910579F011C02B813C812D32310513
:1033300031F08B819C818F32910521F006C091E0A4
:103340009A8304C022E02A8301C01A828A810F90E6
:103350000F900F900F90CF91DF910895DF93CF934F
:1033600000D00F92CDB7DEB7898389818B3249F0C7
:1033700089818D3231F089818A3219F089818F32C9
:1033800029F481E090E09B838A8302C01B821A8229
:103390008A810F900F900F90CF91DF9108950F9336
:1033A0001F93DF93CF93CDB7DEB7CF56D0400FB684
:1033B000F894DEBF0FBECDBFFE01E459FF4F9183ED
:1033C0008083FE01E259FF4F718360838FEF9FEF8F
:1033D0009F838E831D821C821B821A823CC12C819A
:1033E0003D81FE01E459FF4F80819181FC01E20F94
:1033F000F31F8081898389818D3209F07EC08C81A1
:103400009D81009799F08C819D819C0121503040D5
:10341000FE01E459FF4F80819181FC01E20FF31F0F
:1034200080810E94AE19882309F467C02A813B81FC
:10343000FE01E259FF4F80819181FC01E20FF31FF1
:10344000898180838A819B8101969B838A838C8179
:103450009D8101969D838C8320C02A813B81FE0142
:10346000E259FF4F80819181DC01A20FB31F2C81B3
:103470003D81FE01E459FF4F80819181FC01E20F03
:10348000F31F80818C938A819B8101969B838A8321
:103490008C819D8101969D838C832C813D81FE01D1
:1034A000E459FF4F80819181FC01E20FF31F80817D
:1034B000882F90E0C0978A30910578F22C813D8169
:1034C000FE01E459FF4F80819181FC01E20FF31F5F
:1034D00080818E3211F22A813B81FE01E259FF4F39
:1034E00080819181FC01E20FF31F80E280838A8159
:1034F0009B8101969B838A83AEC08981882F90E04F
:10350000C0978A30910528F189818E3209F056C022
:1035100020C02A813B81FE01E259FF4F80819181C9
:10352000DC01A20FB31F2C813D81FE01E459FF4F46
:1035300080819181FC01E20FF31F80818C938A814D
:103540009B8101969B838A838C819D8101969D83BB
:103550008C832C813D81FE01E459FF4F8081918154
:10356000FC01E20FF31F8081882F90E0C0978A3022
:10357000910578F22C813D81FE01E459FF4F808155
:103580009181FC01E20FF31F80818E3211F22A81BA
:103590003B81FE01E259FF4F80819181FC01E20FE6
:1035A000F31F80E280838A819B8101969B838A83BB
:1035B0008C819D8101979D838C8348C089810E9465
:1035C000AE19882309F442C026C02A813B81FE013E
:1035D000E259FF4F808191818C01020F131FCE01B0
:1035E00006960E944807F80180838A819B81019694
:1035F0009B838A832A813B81FE01E259FF4F8081B0
:103600009181FC01E20FF31F80E280838A819B811C
:1036100001969B838A83CE0106960E948B07DC016C
:10362000CB010097A105B10561F4CE0106960E9479
:1036300066070E947819182F89810E947819181737
:1036400020F6CE01069669810E9424078C819D8117
:1036500001969D838C832C813D81FE01E459FF4FAF
:1036600080819181FC01E20FF31F8081882309F0A2
:10367000B6CE26C02A813B81FE01E259FF4F8081F0
:1036800091818C01020F131FCE0106960E944807FC
:10369000F80180838A819B8101969B838A832A819A
:1036A0003B81FE01E259FF4F80819181FC01E20FD5
:1036B000F31F80E280838A819B8101969B838A83AA
:1036C000CE0106960E948B07DC01CB010097A10575
:1036D000B10581F22A813B81FE01E259FF4F8081D1
:1036E0009181FC01E20FF31F1082C159DF4F0FB629
:1036F000F894DEBF0FBECDBFCF91DF911F910F9128
:103700000895EF92FF920F931F93DF93CF93CDB75E
:10371000DEB7C45CD1400FB6F894DEBF0FBECDBF9C
:10372000FE01E354FE4F918380838FEF9FEF9CA7B0
:103730008BA71AA619A6BFC229A53AA5FE01E35474
:10374000FE4F80819181FC01E20FF31F8081882F61
:1037500090E0C0978A30910570F029A53AA5FE0146
:10376000E354FE4F80819181FC01E20FF31F8081C1
:103770008E3209F0CBC080E090E0A0E0B0E08DA3F5
:103780009EA3AFA3B8A71CA21BA280E090E0A0E874
:10379000BFE38F8F98A3A9A3BAA38DC029A53AA58B
:1037A000FE01E354FE4F80819181FC01E20FF31F83
:1037B00080818E3229F481E090E09CA38BA376C0B7
:1037C0008BA19CA1009709F441C06F8D78A189A1BC
:1037D0009AA120E030E040E251E40E941103DC01B4
:1037E000CB018F8F98A3A9A3BAA329A53AA5FE015F
:1037F000E354FE4F80819181FC01E20FF31F808131
:10380000882F90E0C097AA2797FDA095BA2FBC01FA
:10381000CD010E947D04DC01CB01BC01CD012F8DC7
:1038200038A149A15AA10E941702DC01CB019C01D9
:10383000AD016DA17EA18FA198A50E94EA01DC01D6
:10384000CB018DA39EA3AFA3B8A730C06DA17EA16D
:103850008FA198A520E030E040E251E40E941702D9
:10386000DC01CB017C018D0129A53AA5FE01E354C1
:10387000FE4F80819181FC01E20FF31F8081882F30
:1038800090E0C097AA2797FDA095BA2FBC01CD0163
:103890000E947D049B01AC01C801B7010E94EA01AE
:1038A000DC01CB018DA39EA3AFA3B8A789A59AA5E0
:1038B00001969AA789A729A53AA5FE01E354FE4FD0
:1038C00080819181FC01E20FF31F8081882F90E0BD
:1038D000C0978A30910508F461CF29A53AA5FE0169
:1038E000E354FE4F80819181FC01E20FF31F808140
:1038F0008E3209F453CFCE018B962DA13EA14FA15C
:1039000058A5BA01A9010E94B707D5C129A53AA5B2
:10391000FE01E354FE4F80819181FC01E20FF31F11
:1039200080818D3209F016C189A59AA59C012F5F6F
:103930003F4FFE01E354FE4F80819181FC01E20F75
:10394000F31F8081882F90E0C0978A30910508F09E
:10395000D3C089A59AA501969AA789A780E090E08F
:10396000A0E0B0E08B8F9C8FAD8FBE8F1A8E198E2A
:1039700080E090E0A0E8BFE38D8B9E8BAF8BB88F8B
:103980008DC029A53AA5FE01E354FE4F80819181A7
:10399000FC01E20FF31F80818E3229F481E090E078
:1039A0009A8F898F76C0898D9A8D009709F441C0CE
:1039B0006D897E898F89988D20E030E040E251E466
:1039C0000E941103DC01CB018D8B9E8BAF8BB88FD6
:1039D00029A53AA5FE01E354FE4F80819181FC01A7
:1039E000E20FF31F8081882F90E0C097AA2797FDF0
:1039F000A095BA2FBC01CD010E947D04DC01CB0152
:103A0000BC01CD012D893E894F89588D0E94170236
:103A1000DC01CB019C01AD016B8D7C8D8D8D9E8D6C
:103A20000E94EA01DC01CB018B8F9C8FAD8FBE8F92
:103A300030C06B8D7C8D8D8D9E8D20E030E040E21E
:103A400051E40E941702DC01CB017C018D0129A504
:103A50003AA5FE01E354FE4F80819181FC01E20F03
:103A6000F31F8081882F90E0C097AA2797FDA0952B
:103A7000BA2FBC01CD010E947D049B01AC01C8019D
:103A8000B7010E94EA01DC01CB018B8F9C8FAD8FC7
:103A9000BE8F89A59AA501969AA789A729A53AA5B7
:103AA000FE01E354FE4F80819181FC01E20FF31F80
:103AB0008081882F90E0C0978A30910508F461CF0B
:103AC00029A53AA5FE01E354FE4F80819181FC01B6
:103AD000E20FF31F80818E3209F453CF8B8D9C8DC2
:103AE000AD8DBE8D9C01AD015058CE018B96BA01B3
:103AF000A9010E94B707DFC0CE018B960E94EC0798
:103B0000DC01CB01898B9A8BAB8BBC8BCE018B9666
:103B10000E94EC07DC01CB018D879E87AF87B88BB5
:103B20006D857E858F85988929893A894B895C893D
:103B30000E94B901DC01CB019C01AD01CE018B9645
:103B4000BA01A9010E94B70789A59AA501969AA76B
:103B500089A7B1C029A53AA5FE01E354FE4F808193
:103B60009181FC01E20FF31F8081803231F489A53D
:103B70009AA501969AA789A79EC0CE018B960E940E
:103B8000EC07DC01CB0189879A87AB87BC87CE0124
:103B90008B960E94EC07DC01CB018D839E83AF8363
:103BA000B88729A53AA5FE01E354FE4F8081918193
:103BB000FC01E20FF31F8081282F30E0CD53DE4F50
:103BC00039832883C35CD140CD53DE4F88819981EE
:103BD000C35CD1408B32910599F0CD53DE4FA88163
:103BE000B981C35CD140AF32B10561F1CD53DE4F35
:103BF00028813981C35CD1402A32310591F04CC013
:103C00006D817E818F81988529853A854B855C857C
:103C10000E94EA01DC01CB0189839A83AB83BC83D8
:103C20003BC06D817E818F81988529853A854B8542
:103C30005C850E941702DC01CB0189839A83AB83E8
:103C4000BC832AC069857A858B859C8520E030E01D
:103C500040E050E00E94BD03882389F06D817E81A1
:103C60008F81988529853A854B855C850E94110353
:103C7000DC01CB0189839A83AB83BC830DC080E0D8
:103C80009FEFAFE7B7E4C154DE4F88839983AA83DF
:103C9000BB83CF5BD1402BC0CE018B9629813A816B
:103CA0004B815C81BA01A9010E94B70789A59AA539
:103CB00001969AA789A729A53AA5FE01E354FE4FCC
:103CC00080819181FC01E20FF31F8081882309F03C
:103CD00033CDCE018B960E94EC07DC01CB01C154A1
:103CE000DE4F88839983AA83BB83CF5BD140C154C5
:103CF000DE4F88819981AA81BB81CF5BD140BC0115
:103D0000CD01CC53DE4F0FB6F894DEBF0FBECDBF52
:103D1000CF91DF911F910F91FF90EF900895DF9366
:103D2000CF93CDB7DEB72A970FB6F894DEBF0FBE9C
:103D3000CDBF6F83788789879A871E826F81788548
:103D400089859A850E94DB04DC01CB018A839B83F1
:103D5000AC83BD8319826F81788589859A8520E03F
:103D600030E040E050E00E944D0488232CF589812A
:103D70008F5F89838E818F5F8E838F819885A985E0
:103D8000BA85B0588F839887A987BA8715C08A816A
:103D90009B81AC81BD812AE030E040E050E0BC0175
:103DA000CD010E94DC21DA01C9018A839B83AC83A7
:103DB000BD838E818F5F8E838A819B81AC81BD8123
:103DC0000097A105B10519F76F81788589859A85D6
:103DD0000E94DB04DC01CB01BC01CD010E947D040B
:103DE0009B01AC016F81788589859A850E94B90114
:103DF000DC01CB01BC01CD0120E030E040E050E02F
:103E00000E94BD038823D1F08E818C5F8E8391E167
:103E10008E81292F281B822F62E00E944613898100
:103E2000882319F08DE20E9429158F819885A98534
:103E3000BA85BC01CD010E94F9171AC091E18E81AB
:103E4000292F281B822F62E00E9446138981882334
:103E500019F08DE20E9429156F81788589859A85F0
:103E60000E94DB04DC01CB01BC01CD010E947B166A
:103E70002A960FB6F894DEBF0FBECDBFCF91DF916B
:103E80000895DF93CF93CDB7DEB7C650D1400FB6BC
:103E9000F894DEBF0FBECDBF0E94940C0E9449185B
:103EA00084E061E00E94461382E690E00E9448169A
:103EB00080E090E0A8E4B3E48DAB9EABAFABB8AFCD
:103EC0006DA97EA98FA998AD20E030E04AE753E4C0
:103ED0000E941702DC01CB0189AB9AABABABBCAB48
:103EE00069A97AA98BA99CA920E030E040E85FE3AA
:103EF0000E944D0488232CF481E090E098AB8FA7BA
:103F00003FC069A97AA98BA99CA920E03FEF4FE7A0
:103F100057E40E94ED0318164CF56DA97EA98FA9F0
:103F200098AD20E030E040E251E40E941702DC014D
:103F3000CB01BC01CD010E944100DC01CB0198AB5B
:103F40008FA70FC089E190E09EA78DA78DA59EA5A4
:103F50000197F1F79EA78DA78FA598A9019798AB18
:103F60008FA78FA598A9009769F714C069A97AA9A6
:103F70008BA99CA90E944100DC01CB0198AB8FA7C3
:103F80008FA598A99CA78BA78BA59CA50197F1F756
:103F90009CA78BA78AE690E00E94481680E090E0FC
:103FA000A8E4B3E48FA398A7A9A7BAA76FA178A59F
:103FB00089A59AA520E030E04AE753E40E94170261
:103FC000DC01CB018BA39CA3ADA3BEA36BA17CA101
:103FD0008DA19EA120E030E040E85FE30E944D0407
:103FE00088232CF481E090E09AA389A33FC06BA1C1
:103FF0007CA18DA19EA120E03FEF4FE757E40E94F6
:10400000ED0318164CF56FA178A589A59AA520E0B7
:1040100030E040E251E40E941702DC01CB01BC0118
:10402000CD010E944100DC01CB019AA389A30FC0FE
:1040300089E190E098A38F8F8F8D98A10197F1F778
:1040400098A38F8F89A19AA101979AA389A389A187
:104050009AA1009769F714C06BA17CA18DA19EA1C4
:104060000E944100DC01CB019AA389A389A19AA1F6
:104070009E8F8D8F8D8D9E8D0197F1F79E8F8D8FE9
:104080008AE690E00E94481680E090E0A8E4B3E45D
:10409000898F9A8FAB8FBC8F698D7A8D8B8D9C8D1C
:1040A00020E030E04AE753E40E941702DC01CB0134
:1040B0008D8B9E8BAF8BB88F6D897E898F89988D04
:1040C00020E030E040E85FE30E944D0488232CF4B8
:1040D00081E090E09C8B8B8B3FC06D897E898F89BE
:1040E000988D20E03FEF4FE757E40E94ED0318164C
:1040F0004CF5698D7A8D8B8D9C8D20E030E040E20F
:1041000051E40E941702DC01CB01BC01CD010E94E9
:104110004100DC01CB019C8B8B8B0FC089E190E0CF
:104120009A8B898B89899A890197F1F79A8B898B68
:104130008B899C8901979C8B8B8B8B899C890097A1
:1041400069F714C06D897E898F89988D0E9441001E
:10415000DC01CB019C8B8B8B8B899C89988B8F8707
:104160008F8598890197F1F7988B8F878AE690E081
:104170000E94481680E090E0AAE7B4E48B879C8711
:10418000AD87BE876B857C858D859E8520E030E080
:104190004AE753E40E941702DC01CB018F83988722
:1041A000A987BA876F81788589859A8520E030E074
:1041B00040E85FE30E944D0488232CF481E090E006
:1041C0009E838D833FC06F81788589859A8520E0A5
:1041D0003FEF4FE757E40E94ED0318164CF56B854F
:1041E0007C858D859E8520E030E040E251E40E9490
:1041F0001702DC01CB01BC01CD010E944100DC01B2
:10420000CB019E838D830FC089E190E09C838B83DB
:104210008B819C810197F1F79C838B838D819E819B
:1042200001979E838D838D819E81009769F714C0CD
:104230006F81788589859A850E944100DC01CB01D8
:104240009E838D838D819E819A83898389819A81C2
:104250000197F1F79A8389830E94601481E061E0FD
:104260000E9446131DAECE018A5F9E4F0E94A61883
:10427000FE01EA5FFE4F80818F3F11F1FE01EA5F90
:10428000FE4F80818D33E1F0FE01EA5FFE4F8081B9
:104290008F34B1F0FE01EA5FFE4F80810E94291544
:1042A0008DAD282F30E0FE01EA5FFE4F4081CE0148
:1042B000CE96FC01E20FF31F40838DAD8F5F8DAF73
:1042C0008DAD282F30E0CE01CE96FC01E20FF31F1A
:1042D0001082FE01EA5FFE4F80818D3309F03EC0FF
:1042E000CE01CE969E012E553F4FB9010E94CF19A7
:1042F000CE018E559F4F0E94811BDC01CB0189AFFF
:104300009AAFABAFBCAF69AD7AAD8BAD9CAD20E0E1
:104310003FEF4FE757E40E94BD03882349F089AD82
:104320009AADABADBCADBC01CD010E948F1E16C0D5
:104330000E94601481E061E00E9446138CE690E0E8
:104340000E94481605C0CE018A5F9E4F0E94A618A3
:10435000FE01EA5FFE4F80818F34A9F7FE01EA5F1C
:10436000FE4F80818F3409F07ECF0E94601481E07F
:1043700061E00E9446131DAE76CF629FD001739F0D
:10438000F001829FE00DF11D649FE00DF11D929FF1
:10439000F00D839FF00D749FF00D659FF00D992730
:1043A000729FB00DE11DF91F639FB00DE11DF91F54
:1043B000BD01CF011124089597FB092E05260ED0CB
:1043C00057FD04D014D00AD0001C38F45095409505
:1043D000309521953F4F4F4F5F4F0895F6F79095D9
:1043E0008095709561957F4F8F4F9F4F0895A1E203
:1043F0001A2EAA1BBB1BFD010DC0AA1FBB1FEE1F5F
:10440000FF1FA217B307E407F50720F0A21BB30BA9
:10441000E40BF50B661F771F881F991F1A9469F725
:1044200060957095809590959B01AC01BD01CF0181
:1044300008952F923F924F925F926F927F928F9248
:104440009F92AF92BF92CF92DF92EF92FF920F9323
:104450001F93CF93DF93CDB7DEB7CA1BDB0B0FB62D
:10446000F894DEBF0FBECDBF09942A8839884888EA
:104470005F846E847D848C849B84AA84B984C88480
:10448000DF80EE80FD800C811B81AA81B981CE0F77
:10449000D11D0FB6F894DEBF0FBECDBFED0108955C
:0444A000F894FFCFBE
:1044A4002E0057656C636F6D65002E004D61746856
:1044B400204552524F52000000000000000000004E
:1044C40001020203030303040404040404040405B2
:1044D4000505050505050505050505050505050687
:1044E4000606060606060606060606060606060668
:1044F4000606060606060606060606060606060757
:104504000707070707070707070707070707070737
:104514000707070707070707070707070707070727
:104524000707070707070707070707070707070717
:104534000707070707070707070707070707070806
:1045440008080808080808080808080808080808E7
:1045540008080808080808080808080808080808D7
:1045640008080808080808080808080808080808C7
:1045740008080808080808080808080808080808B7
:1045840008080808080808080808080808080808A7
:104594000808080808080808080808080808080897
:1045A4000808080808080808080808080808080887
:1045B40008080808080808080808080808080880FF
:1045C4003738392F3435362A3132332D4F303D2B9D
:00000001FF
